{
  "contractName": "Simplebank",
  "abi": [
    {
      "inputs": [
        {
          "internalType": "uint256",
          "name": "",
          "type": "uint256"
        }
      ],
      "name": "funders",
      "outputs": [
        {
          "internalType": "address",
          "name": "",
          "type": "address"
        }
      ],
      "stateMutability": "view",
      "type": "function",
      "constant": true
    },
    {
      "inputs": [
        {
          "internalType": "uint256",
          "name": "",
          "type": "uint256"
        }
      ],
      "name": "sumFunder",
      "outputs": [
        {
          "internalType": "uint256",
          "name": "",
          "type": "uint256"
        }
      ],
      "stateMutability": "view",
      "type": "function",
      "constant": true
    },
    {
      "inputs": [],
      "name": "addFunds",
      "outputs": [],
      "stateMutability": "payable",
      "type": "function",
      "payable": true
    }
  ],
  "bytecode": "0x608060405234801561001057600080fd5b506102d2806100206000396000f3fe6080604052600436106100345760003560e01c8063a26759cb14610039578063dc0d3dff14610043578063f01ca1d514610080575b600080fd5b6100416100bd565b005b34801561004f57600080fd5b5061006a600480360381019061006591906101e9565b61014b565b6040516100779190610257565b60405180910390f35b34801561008c57600080fd5b506100a760048036038101906100a291906101e9565b61018a565b6040516100b49190610281565b60405180910390f35b6000339080600181540180825580915050600190039060005260206000200160009091909190916101000a81548173ffffffffffffffffffffffffffffffffffffffff021916908373ffffffffffffffffffffffffffffffffffffffff1602179055506001349080600181540180825580915050600190039060005260206000200160009091909190915055565b6000818154811061015b57600080fd5b906000526020600020016000915054906101000a900473ffffffffffffffffffffffffffffffffffffffff1681565b6001818154811061019a57600080fd5b906000526020600020016000915090505481565b600080fd5b6000819050919050565b6101c6816101b3565b81146101d157600080fd5b50565b6000813590506101e3816101bd565b92915050565b6000602082840312156101ff576101fe6101ae565b5b600061020d848285016101d4565b91505092915050565b600073ffffffffffffffffffffffffffffffffffffffff82169050919050565b600061024182610216565b9050919050565b61025181610236565b82525050565b600060208201905061026c6000830184610248565b92915050565b61027b816101b3565b82525050565b60006020820190506102966000830184610272565b9291505056fea264697066735822122074e8f38e2da17dcc8a7a39915d12f4bb0a079f229ecaa0f9f1f480ab3be1243664736f6c63430008110033",
  "immutableReferences": {},
  "source": "// SPDX-License-Identifier: MIT\r\npragma solidity >=0.4.22 <0.9.0;\r\n \r\ncontract Simplebank {\r\n    function addFunds() external payable{\r\n        funders.push(msg.sender);\r\n        sumFunder.push(msg.value);\r\n    }\r\n\r\n    address[] public funders;\r\n    uint[] public sumFunder;\r\n}\r\n\r\n//const instance = await Simplebank.deployed()\r\n//instance.addFunds({value:\"500000000000000000\", from: accounts[0]})\r\n//instance.addFunds({value:\"500000000000000000\", from: accounts[1]})\r\n//const funds = instance.funds()",
  "sourcePath": "C:\\tech2023\\solidity01\\contracts\\Simplebank.sol",
  "compiler": {
    "name": "solc",
    "version": "0.8.17+commit.8df45f5f.Emscripten.clang"
  },
  "schemaVersion": "3.4.11",
  "updatedAt": "2023-01-02T13:53:27.821Z",
  "networkType": "ethereum",
  "devdoc": {
    "kind": "dev",
    "methods": {},
    "version": 1
  },
  "userdoc": {
    "kind": "user",
    "methods": {},
    "version": 1
  }
}